:100000000C9462000C948A000C948A000C948A0070
:100010000C948A000C948A000C948A000C948A0038
:100020000C948A000C948A000C948A000C948A0028
:100030000C948A000C948A000C948A000C948A0018
:100040000C9438060C948A000C948A000C948A0054
:100050000C948A000C948A000C948A000C948A00F8
:100060000C948A000C948A000000000024002700F1
:100070002A0000000000250028002B0000000000DE
:1000800023002600290004040404040404040202DA
:100090000202020203030303030301020408102007
:1000A0004080010204081020010204081020000012
:1000B0000008000201000003040700000000000027
:1000C0000000FF0611241FBECFEFD8E0DEBFCDBF7A
:1000D00011E0A0E0B1E0ECE3FFE002C005900D927A
:1000E000AC3FB107D9F722E0ACEFB1E001C01D92FF
:1000F000A639B207E1F710E0C2E6D0E004C02197CC
:10010000FE010E949107C136D107C9F70E948206FD
:100110000C949C070C94000096E0899FD001112458
:10012000A15FBD4F90967C936E935F9791E09196FF
:100130009C93919790917B02E0917C02F0917D02DB
:10014000992339F0309751F0811108C080912B022A
:1001500004C0309719F05C968C9109940895CF9261
:10016000DF92EF92FF920F931F93CF93DF936C0177
:100170007A018B01C0E0D0E0CE15DF0589F0D8010F
:100180006D918D01D601ED91FC910190F081E02DF2
:10019000C6010995892B11F47E0102C02196ECCF8E
:1001A000C701DF91CF911F910F91FF90EF90DF90EA
:1001B000CF900895833081F028F4813099F0823017
:1001C000A1F008958730A9F08830B9F08430D1F4D7
:1001D000809180008F7D03C0809180008F77809315
:1001E0008000089584B58F7702C084B58F7D84BD6B
:1001F00008958091B0008F7703C08091B0008F7D0B
:100200008093B0000895CF93DF93282F30E0F90159
:10021000E255FF4F8491F901E656FF4FD491F90161
:10022000EA57FF4FC491CC2391F081110E94DA006C
:10023000EC2FF0E0EE0FFF1FE458FF4FA591B491B3
:10024000EC91ED2381E090E021F480E002C080E0B9
:1002500090E0DF91CF910895862F0C9403011F93B6
:10026000CF93DF93282F30E0F901E255FF4F8491BF
:10027000F901E656FF4FD491F901EA57FF4FC491B7
:10028000CC23C9F0162F81110E94DA00EC2FF0E088
:10029000EE0FFF1FEE58FF4FA591B4918FB7F89462
:1002A000111105C09C91ED2FE095E92302C0EC915E
:1002B000ED2BEC938FBFDF91CF911F910895862F87
:1002C000642F0C942F01CF93DF9390E0FC01E6564E
:1002D000FF4F2491FC01EA57FF4F8491882361F17D
:1002E00090E0880F991FFC01E859FF4FC591D49108
:1002F000FC01EE58FF4FA591B491611109C09FB761
:10030000F8948881209582238883EC912E230BC05A
:10031000623061F49FB7F8943881822F80958323EF
:100320008883EC912E2B2C939FBF06C08FB7F89437
:10033000E8812E2B28838FBFDF91CF910895862FE0
:10034000642F0C9463013FB7F89480910B02909155
:100350000C02A0910D02B0910E0226B5A89B05C01B
:100360002F3F19F00196A11DB11D3FBFBA2FA92F34
:10037000982F8827820F911DA11DB11DBC01CD01B1
:1003800042E0660F771F881F991F4A95D1F708959D
:100390008F929F92AF92BF92CF92DF92EF92FF9295
:1003A0006B017C010E94A3014B015C01C114D104CB
:1003B000E104F104F1F00E94A301DC01CB018819F2
:1003C0009909AA09BB09883E9340A105B10570F3BC
:1003D00021E0C21AD108E108F10888EE880E83E016
:1003E000981EA11CB11CC114D104E104F10419F739
:1003F000DDCFFF90EF90DF90CF90BF90AF909F90B8
:100400008F9008952FB7F8946091070270910802B9
:100410008091090290910A022FBF08950F931F93B4
:10042000CF93DF93C82FD62F86E0C89FF001112409
:10043000E15FFD4F11A2878D90A181309105F1F010
:100440001CF4892B49F043C082309105A9F1039730
:10045000F1F560E070E034C06623C9F161E070E05E
:100460008C2F0E948C000E9402026093670270939E
:1004700068028093690290936A0229C00E94020276
:1004800000916702109168022091690230916A021E
:10049000AB01BC01401B510B620B730B80917902C5
:1004A00090917A02A0E0B0E084179507A607B707FD
:1004B00018F462E070E004C0D11109C063E070E09C
:1004C0008C2FDF91CF911F910F910C948C00DF91B5
:1004D000CF911F910F9108956F927F928F929F926B
:1004E000AF92BF92CF92DF92EF92FF920F931F9342
:1004F000CF93DF9381E080937B020E940202009100
:100500006B0210916C0220916D0230916E02AB0172
:10051000BC01401B510B620B730B809177029091D1
:100520007802A0E0B0E084179507A607B70708F0A7
:100530000BC1C0E080917502C81760F4E0917102B0
:10054000F0917202EC0FF11D62E080810E94630164
:10055000CF5FF0CF712C812C912C5401839480912A
:100560007602781608F05FC0072D10E0E091730264
:10057000F0917402E00FF11F61E080810E9463013D
:10058000E0917302F0917402E00FF11F60E080814E
:100590000E942F01D501C401072C04C0880F991FA8
:1005A000AA1FBB1F0A94D2F76C017C01E094F0945F
:1005B000612C809175026816F8F4C62DD0E0E091A8
:1005C0007102F0917202EC0FFD1F80810E94030105
:1005D0002496CC0FDD1FC15FDD4F892B29F4888164
:1005E00099818C299D2904C0888199818E219F2120
:1005F000998388836394DDCFE0917302F091740254
:10060000E00FF11F61E080810E942F018091730251
:1006100090917402FC01E00FF11F60E080810E9464
:10062000630173949CCFEBE2F2E08FEF9FEF2381A5
:100630003481232B21F41082928381831582369694
:1006400022E0E736F20799F710E096E0F92E809164
:100650007502181708F052C000E0C12FD0E0CC0F8F
:10066000DD1FC95EDD4F20917602021708F044C0FD
:1006700068817981002E02C0769567950A94E2F729
:1006800061707727129F90011124200F311DE09196
:100690006F02F0917002E20FF31F4081EFE0F2E091
:1006A00080E0A58DB68DA217B30711F461701AC052
:1006B0008F5F36968A30A9F7672BE1F0EBE2F2E024
:1006C00080E090E05081511110C0F89EF001F99E39
:1006D000F00D1124E15FFD4F448F368F258F10A25E
:1006E000178E61E00E940E0205C0019636968A3090
:1006F000910541F70F5FB7CF1F5FA9CF80E090E072
:10070000C0E0FC01E15FFD4F21A12111C1E006968F
:100710008C339105B1F70E94020260936B027093D3
:100720006C0280936D0290936E02CC2369F08091ED
:100730003002882349F080912E0290912F02019778
:1007400019F480912B0203C010927B0280E0DF91AC
:10075000CF911F910F91FF90EF90DF90CF90BF90BE
:10076000AF909F908F907F906F900895CF93DF937D
:10077000EC0160E08E810E942F0161E08E810E9479
:100780002F0160E08E810E942F018BE891E001979C
:10079000F1F7DF91CF910895CF92DF92EF92FF9220
:1007A0000F931F93CF93DF937C016C0187E0C80EFA
:1007B000D11CC0E0D0E0062F10E0B8010C2E02C022
:1007C000759567950A94E2F76170F60181916F0162
:1007D0000E942F012196C430D10579F7C701DF911E
:1007E000CF911F910F91FF90EF90DF90CF900C94DD
:1007F000B603CF92DF92EF92FF920F931F93CF93A6
:10080000DF93EC01F62E642F8C810E942F018D81E5
:100810008F3F19F060E00E942F018F850F2D10E0AF
:1008200084FF25C06E0187E0C80ED11CE12CF12C9D
:10083000B8010E2C02C0759567950A94E2F76170B5
:10084000F60181916F010E942F01FFEFEF1AFF0A5D
:1008500088E0E816F10461F7CE01DF91CF911F9196
:100860000F91FF90EF90DF90CF900C94B603B801FA
:1008700084E0759567958A95E1F7CE010E94CC03D7
:100880006F2DCE01DF91CF911F910F91FF90EF90CF
:10089000DF90CF900C94CC0341E00E94F90381E0FB
:1008A00090E0089540E00C94F903EF92FF920F93CB
:1008B0001F93CF93DF93EC01423018F08F8588604F
:1008C0008F874B8B1C8A80E48D8B6E8B70E0605C15
:1008D0007F4F6F8B61E08C810E9463018D818F3F20
:1008E00019F061E00E94630161E08E810E94630162
:1008F0007E0187E0E80EF11C00E010E08F8584FDAA
:1009000003C084E090E002C088E090E00817190777
:100910004CF461E0F70181917F010E9463010F5F58
:100920001F4FECCF8BE39DE00197F1F760E08C81E6
:100930000E942F0160E08E810E942F018D818F3FE8
:1009400019F060E00E942F016F8564FD1DC063E017
:10095000CE010E94CC030BE416E4C8010197F1F725
:1009600063E0CE010E94CC03C8010197F1F763E078
:10097000CE010E94CC0383E592E00197F1F762E09B
:10098000CE010E94CC0316C06062CE010E945204C8
:100990008BE496E40197F1F76F856062CE010E94C7
:1009A000520483E592E00197F1F76F856062CE0112
:1009B0000E9452046F856062CE010E94520484E05E
:1009C000888B6CE0CE010E94520461E0CE010E944F
:1009D00052048BE39FE10197F1F782E0898B66E097
:1009E000CE01DF91CF911F910F91FF90EF900C946A
:1009F0005204643008F063E090919102691710F09E
:100A00006FEF690FE62FF0E0E258FD4F9489682FF1
:100A1000690F60688EE792E00C945204089580E0BC
:100A200090E00895009769F0FC0101900020E9F73B
:100A30003197AF01481B590BBC018EE792E00C9433
:100A4000AF0080E090E0089561E080E00E94F9044A
:100A50008EE291E00E9412056CED75E080E090E07E
:100A60000E94C80161E080E00E94F90483E491E003
:100A70000E94120561E080E00E94F90410920002D9
:100A800061E08BE00E942F0160E08AE00E942F016C
:100A900060E08CE00C942F010E949707EF92FF9288
:100AA0000F931F93CF93DF931F92CDB7DEB70E94B2
:100AB0006C02182F61E080E00E94F90483E691E067
:100AC0000E94120568EE73E080E090E00E94C80189
:100AD0001123F9F0809105028430DCF41D33C9F054
:100AE0001334B9F0E0917E02F0917F020190F08121
:100AF000E02D612F8EE792E0099580910502E82FA5
:100B0000082E000CFF0BEF5FFD4F10838F5F80936B
:100B100005020E946C02182F61E080E00E94F90437
:100B200088E791E00E94120568EE73E080E090E0B3
:100B30000E94C8011D3309F501E012E0E12CF12CFF
:100B4000F80161918F01C70169830E947B07698168
:100B5000681719F0C7010E948307FFEFEF1AFF0A19
:100B600084E0E816F10461F70F90DF91CF911F91B7
:100B70000F91FF90EF900C94C805133409F497CFB0
:100B80000F90DF91CF911F910F91FF90EF900895FB
:100B9000CF930E946C02C82F833419F4CF910C9428
:100BA0004E0561E080E00E94F90482E991E00E9434
:100BB0001205CC2309F45AC0809100028430D4F489
:100BC000CD33D1F0E0917E02F0917F020190F0816F
:100BD000E02D6AE28EE792E0099580910002E82F0D
:100BE000082E000CFF0BE450FE4FC0838F5F8093F4
:100BF00000023CC0CD33D1F58091FC01813329F551
:100C00008091FD01823309F58091FE018333E9F47F
:100C10008091FF018433C9F460E08BE00E942F01D2
:100C200061E08AE00E942F0161E08CE00E942F01C8
:100C300061E080E00E94F90489EA91E00E941205D7
:100C400060EA7FE080E090E00CC061E080E00E941C
:100C5000F90480EC91E00E9412056CED75E080E0F3
:100C600090E00E94C801CF910C942405CF91089583
:100C70001F920F920FB60F9211242F933F938F93D1
:100C80009F93AF93BF938091070290910802A09128
:100C90000902B0910A023091060223E0230F2D379A
:100CA00020F40196A11DB11D05C026E8230F029670
:100CB000A11DB11D209306028093070290930802A4
:100CC000A0930902B0930A0280910B0290910C024A
:100CD000A0910D02B0910E020196A11DB11D80934D
:100CE0000B0290930C02A0930D02B0930E02BF91E1
:100CF000AF919F918F913F912F910F900FBE0F90C9
:100D00001F901895789484B5826084BD84B5816005
:100D100084BD85B5826085BD85B5816085BD8091C6
:100D20006E00816080936E0010928100809181003E
:100D30008260809381008091810081608093810036
:100D4000809180008160809380008091B1008460F8
:100D50008093B1008091B00081608093B000809159
:100D60007A00846080937A0080917A008260809318
:100D70007A0080917A00816080937A0080917A0075
:100D8000806880937A001092C10061E08AE00E943E
:100D9000630161E08BE00E94630161E08CE00E94EE
:100DA000630144E064E18EE792E00E94550481ED26
:100DB00091E00E94120562E081E00E94F9046091D6
:100DC0008E02862F826080938E026A608EE792E0A8
:100DD0000E94520461E08BE00E942F0160E08AE0F3
:100DE0000E942F0160E08CE00E942F01C0E0D0E063
:100DF0000E94C8052097E1F30E940000F9CF1092ED
:100E000081021092800286E291E090937F028093AB
:100E10007E0289E0809382028FEF8093830288E0D4
:100E20008093840287E08093850286E08093860227
:100E300085E08093870284E0809388021092890283
:100E400010928A0210928B0210928C0210928D02E4
:100E500041E060E18EE792E00E9455041092110299
:100E60001092150210921402109216028CE191E079
:100E70009093100280930F0280E090E0FC01E15F0C
:100E8000FD4F148E10A2178E11A206968C33910579
:100E9000A9F784E091E0909372028093710280E060
:100EA00091E0909374028093730284E080937502C2
:100EB0008093760288E091E09093700280936F02B5
:100EC0008AE090E0909378028093770284EF91E03B
:100ED00090937A028093790210927D0210927C02A4
:100EE00010926B0210926C0210926D0210926E02C0
:100EF00010927B020895F999FECF92BD81BDF89AB8
:100F0000992780B50895262FF999FECF1FBA92BD73
:100F100081BD20BD0FB6F894FA9AF99A0FBE0196DA
:100F20000895EE0FFF1F0590F491E02D099481E0E4
:0C0F300090E0F8940C949C07F894FFCF1C
:100F3C0011100F0E030213123738392F3435362A9D
:100F4C003132332D43303D2B000000009F015F01F7
:100F5C002C01000000004C04AF000F050E05446F7F
:100F6C006F72204C6F636B6564C2A0C2A0C2A0C23A
:100F7C00A02000C2A0C2A0C2A0C2A0C2A0C2A0C297
:100F8C00A0C2A0C2A0C2A0C2A0C2A0C2A0C2A0C245
:100F9C00A02000526567697374726520636F6E746C
:100FAC0072617365C3B161004465736561206775D7
:100FBC00617264617220636F6E7472617365C3B128
:100FCC006100696E74726F64757A636120636F6E11
:100FDC007472617365C3B16100446F6F72204F709E
:100FEC00656EC2A0C2A0C2A0C2A0C2A0C2A02000B6
:100FFC00496E76616C69642050617373776F7264AB
:10100C0000796120726567697374726F20636F6E0B
:10101C007472617365C3B1613F20283D29207369E7
:0C102C00202F2F20284329206E6F000089
:00000001FF
