:1000000006C1000084C3000057C300002AC30000DB
:10001000FDC20000D0C20000A3C2000076C20000F2
:1000200049C2000013C1000011C100000FC100004F
:100030000DC100000BC1000009C1000007C1000094
:1000400005C1000003C1000001C10000FFC00000A5
:10005000FDC00000FBC00000F9C00000E1C10000CD
:10006000F5C00000F3C00000F1C00000EFC00000C8
:10007000EDC00000EBC00000E9C00000E7C00000D8
:10008000E5C00000E3C00000E1C00000DFC00000E8
:10009000DDC00000DBC00000D9C00000D7C00000F8
:1000A000D5C00000D3C00000D1C00000CFC0000008
:1000B000CDC00000CBC00000C9C00000C7C0000018
:1000C000C5C00000C3C00000C1C00000BFC0000028
:1000D000BDC00000BBC00000B9C00000B7C0000038
:1000E000B5C000008501880177017B017F01BF0158
:1000F0008C01900196019A019E01A401A801AC0116
:10010000BF01B201B601BA0100002100240027009E
:100110002A002D0030003300010100000401070116
:100120000A0100002200250028002B002E003100CB
:10013000340002010000050108010B010505050559
:10014000070508080808020202020A0A080804044F
:10015000040401010101010101010303030303037D
:100160000303040707070C0C0C0C0C0C0C0C02020C
:10017000020206060606060606060B0B0B0B0B0B09
:100180000B0B010210202008081020401020408096
:10019000020102010804020101020408102040804B
:1001A00080402010080402018004020180402010D9
:1001B0000804020108040201010204081020408022
:1001C000010204081020408000000A0B02090C0DF7
:1001D0000E080703040100000000000000000000FA
:1001E000000000000000000000000000000000000F
:1001F00000000000121110000000000000000000CC
:1002000000000000000000000000000000001124B9
:100210001FBECFEFD1E2DEBFCDBF00E00CBF12E0CA
:10022000A0E0B2E0EAE7F9E000E00BBF02C007900F
:100230000D92A031B107D9F722E0A0E1B2E001C0F0
:100240001D92AF31B207E1F78DD295C3D9CE90910F
:10025000150281E0911180E080931502089590913C
:10026000140281E0911180E080931402089590912E
:10027000130281E0911180E0809313020895909120
:10028000120281E0911180E0809312020895909112
:10029000110281E0911180E0809311020895909104
:1002A000100281E0911180E0809310020895362FB2
:1002B00090E0FC01E853FE4F4491FC01EE57FE4FE5
:1002C0002491FC01E45CFE4F9491992309F46AC0E7
:1002D000442309F454C050E0FA013197E231F105AA
:1002E00008F04DC08827EE58FF4F8F4F3CC38091D8
:1002F00080008F7707C0809180008F7D03C0809140
:100300008000877F809380003AC084B58F7702C0D9
:1003100084B58F7D84BD33C08091B0008F7703C0DA
:100320008091B0008F7D8093B00029C080919000B3
:100330008F7707C0809190008F7D03C080919000DF
:10034000877F809390001BC08091A0008F7707C0AB
:100350008091A0008F7D03C08091A000877F809353
:10036000A0000DC0809120018F7707C080912001EF
:100370008F7D03C080912001877F80932001E92F2A
:10038000F0E0EE0FFF1FEE5DFE4FA591B4918FB729
:10039000F894EC91311103C020952E2301C02E2B2F
:1003A0002C938FBF0895CF93DF9390E0FC01EE571D
:1003B000FE4F2491FC01E45CFE4F8491882361F19F
:1003C00090E0880F991FFC01E85FFE4FC591D49122
:1003D000FC01EE5DFE4FA591B491611109C09FB77C
:1003E000F8948881209582238883EC912E230BC07A
:1003F000623061F49FB7F8943881822F809583230F
:100400008883EC912E2B2C939FBF06C08FB7F89456
:10041000E8812E2B28838FBFDF91CF910895089517
:100420001F920F920FB60F9211242F933F938F9329
:100430009F93AF93BF9380911B0290911C02A09158
:100440001D02B0911E0230911A0223E0230F2D37B6
:1004500020F40196A11DB11D05C026E8230F0296C8
:10046000A11DB11D20931A0280931B0290931C02C0
:10047000A0931D02B0931E02809116029091170264
:10048000A0911802B09119020196A11DB11D80938F
:10049000160290931702A0931802B0931902BF910D
:1004A000AF919F918F913F912F910F900FBE0F9021
:1004B0001F9018951F920F920FB60F9211240BB632
:1004C0000F922F933F934F935F936F937F938F93ED
:1004D0009F93AF93BF93EF93FF93E0910E02F09140
:1004E0000F021995FF91EF91BF91AF919F918F915D
:1004F0007F916F915F914F913F912F910F900BBE24
:100500000F900FBE0F901F9018951F920F920FB66D
:100510000F9211240BB60F922F933F934F935F933B
:100520006F937F938F939F93AF93BF93EF93FF93BB
:10053000E0910C02F0910D021995FF91EF91BF919E
:10054000AF919F918F917F916F915F914F913F916B
:100550002F910F900BBE0F900FBE0F901F9018950C
:100560001F920F920FB60F9211240BB60F922F937A
:100570003F934F935F936F937F938F939F93AF932B
:10058000BF93EF93FF93E0910202F091030219955C
:10059000FF91EF91BF91AF919F918F917F916F915B
:1005A0005F914F913F912F910F900BBE0F900FBE17
:1005B0000F901F9018951F920F920FB60F92112453
:1005C0000BB60F922F933F934F935F936F937F934D
:1005D0008F939F93AF93BF93EF93FF93E0910002AC
:1005E000F09101021995FF91EF91BF91AF919F9109
:1005F0008F917F916F915F914F913F912F910F90CC
:100600000BBE0F900FBE0F901F9018951F920F9268
:100610000FB60F9211240BB60F922F933F934F9367
:100620005F936F937F938F939F93AF93BF93EF935A
:10063000FF93E0910A02F0910B021995FF91EF915F
:10064000BF91AF919F918F917F916F915F914F91EA
:100650003F912F910F900BBE0F900FBE0F901F90E8
:1006600018951F920F920FB60F9211240BB60F928E
:100670002F933F934F935F936F937F938F939F93AA
:10068000AF93BF93EF93FF93E0910802F0910902BB
:100690001995FF91EF91BF91AF919F918F917F91AC
:1006A0006F915F914F913F912F910F900BBE0F90E3
:1006B0000FBE0F901F9018951F920F920FB60F92BA
:1006C00011240BB60F922F933F934F935F936F9329
:1006D0007F938F939F93AF93BF93EF93FF93E0919B
:1006E0000602F09107021995FF91EF91BF91AF912A
:1006F0009F918F917F916F915F914F913F912F913A
:100700000F900BBE0F900FBE0F901F9018951F9269
:100710000F920FB60F9211240BB60F922F933F93A7
:100720004F935F936F937F938F939F93AF93BF93F9
:10073000EF93FF93E0910402F09105021995FF9168
:10074000EF91BF91AF919F918F917F916F915F9149
:100750004F913F912F910F900BBE0F900FBE0F90B6
:100760001F901895789484B5826084BD84B58160AB
:1007700084BD85B5826085BD85B5816085BD80916C
:100780006E00816080936E001092810080918100E4
:1007900082608093810080918100816080938100DC
:1007A000809180008160809380008091B10084609E
:1007B0008093B1008091B00081608093B0008091FF
:1007C000910082608093910080919100816080937C
:1007D0009100809190008160809390008091A100B1
:1007E00082608093A1008091A10081608093A1002C
:1007F0008091A00081608093A0008091210182609F
:100800008093210180912101816080932101809159
:10081000200181608093200180917A008460809320
:100820007A0080917A00826080937A0080917A00C9
:10083000816080937A0080917A00806880937A004A
:100840001092C10061E08DE0AEDD61E08CE0ABDDD7
:1008500061E08BE0A8DD61E08AE0A5DD61E089E090
:10086000A2DD61E088E09FDD62E082E09CDD62E085
:1008700083E099DD62E082E196DD62E083E193DD71
:1008800062E084E190DD62E085E18DDD87E291E068
:10089000909301028093000280916A008C7F8160B6
:1008A00080936A00EC9A8FE291E090930302809328
:1008B000020280916A00837F846080936A00ED9ACF
:1008C00087E391E090930B0280930A028091690084
:1008D0008F73806480936900EB9A8FE391E090932B
:1008E000090280930802809169008F7C8061809367
:1008F0006900EA9A87E491E09093070280930602E8
:1009000080916900837F846080936900E99A8FE415
:1009100091E09093050280930402809169008C7F9E
:10092000816080936900E89AC0E0D0E06091150290
:100930008DE0BDDC609114028CE0B9DC60911302A3
:100940008BE0B5DC609112028AE0B1DC60911102AB
:1009500089E0ADDC6091100288E0A9DC209731F3DA
:100960000E940000E3CFEE0FFF1F881F8BBF079090
:0A097000F691E02D1994F894FFCFE2
:10097A000F020F020F020F020F020F020F020F02E5
:00000001FF
